{
  "_format": "hh-sol-artifact-1",
  "contractName": "Dog",
  "sourceName": "contracts/Dog.sol",
  "abi": [
    {
      "inputs": [
        {
          "internalType": "string",
          "name": "_name",
          "type": "string"
        },
        {
          "internalType": "string",
          "name": "_symbol",
          "type": "string"
        }
      ],
      "stateMutability": "nonpayable",
      "type": "constructor"
    },
    {
      "anonymous": false,
      "inputs": [
        {
          "indexed": true,
          "internalType": "address",
          "name": "owner",
          "type": "address"
        },
        {
          "indexed": true,
          "internalType": "address",
          "name": "approved",
          "type": "address"
        },
        {
          "indexed": true,
          "internalType": "uint256",
          "name": "tokenId",
          "type": "uint256"
        }
      ],
      "name": "Approval",
      "type": "event"
    },
    {
      "anonymous": false,
      "inputs": [
        {
          "indexed": true,
          "internalType": "address",
          "name": "owner",
          "type": "address"
        },
        {
          "indexed": true,
          "internalType": "address",
          "name": "operator",
          "type": "address"
        },
        {
          "indexed": false,
          "internalType": "bool",
          "name": "approved",
          "type": "bool"
        }
      ],
      "name": "ApprovalForAll",
      "type": "event"
    },
    {
      "anonymous": false,
      "inputs": [
        {
          "indexed": true,
          "internalType": "address",
          "name": "from",
          "type": "address"
        },
        {
          "indexed": true,
          "internalType": "address",
          "name": "to",
          "type": "address"
        },
        {
          "indexed": true,
          "internalType": "uint256",
          "name": "tokenId",
          "type": "uint256"
        }
      ],
      "name": "Transfer",
      "type": "event"
    },
    {
      "inputs": [
        {
          "internalType": "address",
          "name": "to",
          "type": "address"
        },
        {
          "internalType": "uint256",
          "name": "tokenId",
          "type": "uint256"
        }
      ],
      "name": "approve",
      "outputs": [],
      "stateMutability": "nonpayable",
      "type": "function"
    },
    {
      "inputs": [
        {
          "internalType": "address",
          "name": "owner",
          "type": "address"
        }
      ],
      "name": "balanceOf",
      "outputs": [
        {
          "internalType": "uint256",
          "name": "",
          "type": "uint256"
        }
      ],
      "stateMutability": "view",
      "type": "function"
    },
    {
      "inputs": [
        {
          "internalType": "uint256",
          "name": "",
          "type": "uint256"
        }
      ],
      "name": "dogs",
      "outputs": [
        {
          "internalType": "uint256",
          "name": "id",
          "type": "uint256"
        },
        {
          "internalType": "string",
          "name": "uuid",
          "type": "string"
        },
        {
          "internalType": "string",
          "name": "name",
          "type": "string"
        },
        {
          "internalType": "string",
          "name": "breed",
          "type": "string"
        },
        {
          "internalType": "string",
          "name": "color",
          "type": "string"
        },
        {
          "internalType": "bool",
          "name": "availableForAdpt",
          "type": "bool"
        }
      ],
      "stateMutability": "view",
      "type": "function"
    },
    {
      "inputs": [
        {
          "internalType": "string",
          "name": "_uuid",
          "type": "string"
        }
      ],
      "name": "findDog",
      "outputs": [
        {
          "components": [
            {
              "internalType": "uint256",
              "name": "id",
              "type": "uint256"
            },
            {
              "internalType": "string",
              "name": "uuid",
              "type": "string"
            },
            {
              "internalType": "string",
              "name": "name",
              "type": "string"
            },
            {
              "internalType": "string",
              "name": "breed",
              "type": "string"
            },
            {
              "internalType": "string",
              "name": "color",
              "type": "string"
            },
            {
              "internalType": "bool",
              "name": "availableForAdpt",
              "type": "bool"
            }
          ],
          "internalType": "struct Dog.DogInfo",
          "name": "",
          "type": "tuple"
        }
      ],
      "stateMutability": "view",
      "type": "function"
    },
    {
      "inputs": [
        {
          "internalType": "uint256",
          "name": "tokenId",
          "type": "uint256"
        }
      ],
      "name": "getApproved",
      "outputs": [
        {
          "internalType": "address",
          "name": "",
          "type": "address"
        }
      ],
      "stateMutability": "view",
      "type": "function"
    },
    {
      "inputs": [
        {
          "internalType": "address",
          "name": "owner",
          "type": "address"
        },
        {
          "internalType": "address",
          "name": "operator",
          "type": "address"
        }
      ],
      "name": "isApprovedForAll",
      "outputs": [
        {
          "internalType": "bool",
          "name": "",
          "type": "bool"
        }
      ],
      "stateMutability": "view",
      "type": "function"
    },
    {
      "inputs": [],
      "name": "name",
      "outputs": [
        {
          "internalType": "string",
          "name": "",
          "type": "string"
        }
      ],
      "stateMutability": "view",
      "type": "function"
    },
    {
      "inputs": [],
      "name": "owner",
      "outputs": [
        {
          "internalType": "address",
          "name": "",
          "type": "address"
        }
      ],
      "stateMutability": "view",
      "type": "function"
    },
    {
      "inputs": [
        {
          "internalType": "uint256",
          "name": "tokenId",
          "type": "uint256"
        }
      ],
      "name": "ownerOf",
      "outputs": [
        {
          "internalType": "address",
          "name": "",
          "type": "address"
        }
      ],
      "stateMutability": "view",
      "type": "function"
    },
    {
      "inputs": [
        {
          "internalType": "string",
          "name": "_uuid",
          "type": "string"
        },
        {
          "internalType": "string",
          "name": "_name",
          "type": "string"
        },
        {
          "internalType": "string",
          "name": "_breed",
          "type": "string"
        },
        {
          "internalType": "string",
          "name": "_color",
          "type": "string"
        },
        {
          "internalType": "bool",
          "name": "_availableForAdpt",
          "type": "bool"
        }
      ],
      "name": "registerDog",
      "outputs": [],
      "stateMutability": "nonpayable",
      "type": "function"
    },
    {
      "inputs": [
        {
          "internalType": "address",
          "name": "from",
          "type": "address"
        },
        {
          "internalType": "address",
          "name": "to",
          "type": "address"
        },
        {
          "internalType": "uint256",
          "name": "tokenId",
          "type": "uint256"
        }
      ],
      "name": "safeTransferFrom",
      "outputs": [],
      "stateMutability": "nonpayable",
      "type": "function"
    },
    {
      "inputs": [
        {
          "internalType": "address",
          "name": "from",
          "type": "address"
        },
        {
          "internalType": "address",
          "name": "to",
          "type": "address"
        },
        {
          "internalType": "uint256",
          "name": "tokenId",
          "type": "uint256"
        },
        {
          "internalType": "bytes",
          "name": "_data",
          "type": "bytes"
        }
      ],
      "name": "safeTransferFrom",
      "outputs": [],
      "stateMutability": "nonpayable",
      "type": "function"
    },
    {
      "inputs": [
        {
          "internalType": "address",
          "name": "operator",
          "type": "address"
        },
        {
          "internalType": "bool",
          "name": "approved",
          "type": "bool"
        }
      ],
      "name": "setApprovalForAll",
      "outputs": [],
      "stateMutability": "nonpayable",
      "type": "function"
    },
    {
      "inputs": [
        {
          "internalType": "bytes4",
          "name": "interfaceId",
          "type": "bytes4"
        }
      ],
      "name": "supportsInterface",
      "outputs": [
        {
          "internalType": "bool",
          "name": "",
          "type": "bool"
        }
      ],
      "stateMutability": "view",
      "type": "function"
    },
    {
      "inputs": [],
      "name": "symbol",
      "outputs": [
        {
          "internalType": "string",
          "name": "",
          "type": "string"
        }
      ],
      "stateMutability": "view",
      "type": "function"
    },
    {
      "inputs": [
        {
          "internalType": "uint256",
          "name": "tokenId",
          "type": "uint256"
        }
      ],
      "name": "tokenURI",
      "outputs": [
        {
          "internalType": "string",
          "name": "",
          "type": "string"
        }
      ],
      "stateMutability": "view",
      "type": "function"
    },
    {
      "inputs": [],
      "name": "totalSupply",
      "outputs": [
        {
          "internalType": "uint256",
          "name": "",
          "type": "uint256"
        }
      ],
      "stateMutability": "view",
      "type": "function"
    },
    {
      "inputs": [
        {
          "internalType": "address",
          "name": "from",
          "type": "address"
        },
        {
          "internalType": "address",
          "name": "to",
          "type": "address"
        },
        {
          "internalType": "uint256",
          "name": "tokenId",
          "type": "uint256"
        }
      ],
      "name": "transferFrom",
      "outputs": [],
      "stateMutability": "nonpayable",
      "type": "function"
    }
  ],
  "bytecode": "0x60806040523480156200001157600080fd5b5060405162003d8638038062003d8683398181016040528101906200003791906200023b565b818181600090816200004a91906200050b565b5080600190816200005c91906200050b565b50505033600660006101000a81548173ffffffffffffffffffffffffffffffffffffffff021916908373ffffffffffffffffffffffffffffffffffffffff1602179055505050620005f2565b6000604051905090565b600080fd5b600080fd5b600080fd5b600080fd5b6000601f19601f8301169050919050565b7f4e487b7100000000000000000000000000000000000000000000000000000000600052604160045260246000fd5b6200011182620000c6565b810181811067ffffffffffffffff82111715620001335762000132620000d7565b5b80604052505050565b600062000148620000a8565b905062000156828262000106565b919050565b600067ffffffffffffffff821115620001795762000178620000d7565b5b6200018482620000c6565b9050602081019050919050565b60005b83811015620001b157808201518184015260208101905062000194565b60008484015250505050565b6000620001d4620001ce846200015b565b6200013c565b905082815260208101848484011115620001f357620001f2620000c1565b5b6200020084828562000191565b509392505050565b600082601f83011262000220576200021f620000bc565b5b815162000232848260208601620001bd565b91505092915050565b60008060408385031215620002555762000254620000b2565b5b600083015167ffffffffffffffff811115620002765762000275620000b7565b5b620002848582860162000208565b925050602083015167ffffffffffffffff811115620002a857620002a7620000b7565b5b620002b68582860162000208565b9150509250929050565b600081519050919050565b7f4e487b7100000000000000000000000000000000000000000000000000000000600052602260045260246000fd5b600060028204905060018216806200031357607f821691505b602082108103620003295762000328620002cb565b5b50919050565b60008190508160005260206000209050919050565b60006020601f8301049050919050565b600082821b905092915050565b600060088302620003937fffffffffffffffffffffffffffffffffffffffffffffffffffffffffffffffff8262000354565b6200039f868362000354565b95508019841693508086168417925050509392505050565b6000819050919050565b6000819050919050565b6000620003ec620003e6620003e084620003b7565b620003c1565b620003b7565b9050919050565b6000819050919050565b6200040883620003cb565b620004206200041782620003f3565b84845462000361565b825550505050565b600090565b6200043762000428565b62000444818484620003fd565b505050565b5b818110156200046c57620004606000826200042d565b6001810190506200044a565b5050565b601f821115620004bb5762000485816200032f565b620004908462000344565b81016020851015620004a0578190505b620004b8620004af8562000344565b83018262000449565b50505b505050565b600082821c905092915050565b6000620004e060001984600802620004c0565b1980831691505092915050565b6000620004fb8383620004cd565b9150826002028217905092915050565b6200051682620002c0565b67ffffffffffffffff811115620005325762000531620000d7565b5b6200053e8254620002fa565b6200054b82828562000470565b600060209050601f8311600181146200058357600084156200056e578287015190505b6200057a8582620004ed565b865550620005ea565b601f19841662000593866200032f565b60005b82811015620005bd5784890151825560018201915060208501945060208101905062000596565b86831015620005dd5784890151620005d9601f891682620004cd565b8355505b6001600288020188555050505b505050505050565b61378480620006026000396000f3fe608060405234801561001057600080fd5b50600436106101165760003560e01c806370a08231116100a2578063a22cb46511610071578063a22cb4651461030c578063b88d4fde14610328578063c87b56dd14610344578063d696556514610374578063e985e9c51461039057610116565b806370a0823114610270578063749e7ff4146102a05780638da5cb5b146102d057806395d89b41146102ee57610116565b806318160ddd116100e957806318160ddd146101b557806323b872dd146101d357806338272356146101ef57806342842e0e146102245780636352211e1461024057610116565b806301ffc9a71461011b57806306fdde031461014b578063081812fc14610169578063095ea7b314610199575b600080fd5b61013560048036038101906101309190611f84565b6103c0565b6040516101429190611fcc565b60405180910390f35b6101536104a2565b6040516101609190612077565b60405180910390f35b610183600480360381019061017e91906120cf565b610534565b604051610190919061213d565b60405180910390f35b6101b360048036038101906101ae9190612184565b6105b9565b005b6101bd6106d0565b6040516101ca91906121d3565b60405180910390f35b6101ed60048036038101906101e891906121ee565b6106dd565b005b610209600480360381019061020491906120cf565b61073d565b60405161021b96959493929190612241565b60405180910390f35b61023e600480360381019061023991906121ee565b6109b6565b005b61025a600480360381019061025591906120cf565b6109d6565b604051610267919061213d565b60405180910390f35b61028a600480360381019061028591906122be565b610a87565b60405161029791906121d3565b60405180910390f35b6102ba60048036038101906102b59190612420565b610b3e565b6040516102c7919061256f565b60405180910390f35b6102d8610e93565b6040516102e5919061213d565b60405180910390f35b6102f6610eb9565b6040516103039190612077565b60405180910390f35b610326600480360381019061032191906125bd565b610f4b565b005b610342600480360381019061033d919061269e565b610f61565b005b61035e600480360381019061035991906120cf565b610fc3565b60405161036b9190612077565b60405180910390f35b61038e60048036038101906103899190612721565b61106a565b005b6103aa60048036038101906103a5919061280c565b611208565b6040516103b79190611fcc565b60405180910390f35b60007f80ac58cd000000000000000000000000000000000000000000000000000000007bffffffffffffffffffffffffffffffffffffffffffffffffffffffff1916827bffffffffffffffffffffffffffffffffffffffffffffffffffffffff1916148061048b57507f5b5e139f000000000000000000000000000000000000000000000000000000007bffffffffffffffffffffffffffffffffffffffffffffffffffffffff1916827bffffffffffffffffffffffffffffffffffffffffffffffffffffffff1916145b8061049b575061049a8261129c565b5b9050919050565b6060600080546104b19061287b565b80601f01602080910402602001604051908101604052809291908181526020018280546104dd9061287b565b801561052a5780601f106104ff5761010080835404028352916020019161052a565b820191906000526020600020905b81548152906001019060200180831161050d57829003601f168201915b5050505050905090565b600061053f82611306565b61057e576040517f08c379a00000000000000000000000000000000000000000000000000000000081526004016105759061291e565b60405180910390fd5b6004600083815260200190815260200160002060009054906101000a900473ffffffffffffffffffffffffffffffffffffffff169050919050565b60006105c4826109d6565b90508073ffffffffffffffffffffffffffffffffffffffff168373ffffffffffffffffffffffffffffffffffffffff1603610634576040517f08c379a000000000000000000000000000000000000000000000000000000000815260040161062b906129b0565b60405180910390fd5b8073ffffffffffffffffffffffffffffffffffffffff16610653611372565b73ffffffffffffffffffffffffffffffffffffffff16148061068257506106818161067c611372565b611208565b5b6106c1576040517f08c379a00000000000000000000000000000000000000000000000000000000081526004016106b890612a42565b60405180910390fd5b6106cb838361137a565b505050565b6000600880549050905090565b6106ee6106e8611372565b82611433565b61072d576040517f08c379a000000000000000000000000000000000000000000000000000000000815260040161072490612ad4565b60405180910390fd5b610738838383611511565b505050565b6008818154811061074d57600080fd5b90600052602060002090600602016000915090508060000154908060010180546107769061287b565b80601f01602080910402602001604051908101604052809291908181526020018280546107a29061287b565b80156107ef5780601f106107c4576101008083540402835291602001916107ef565b820191906000526020600020905b8154815290600101906020018083116107d257829003601f168201915b5050505050908060020180546108049061287b565b80601f01602080910402602001604051908101604052809291908181526020018280546108309061287b565b801561087d5780601f106108525761010080835404028352916020019161087d565b820191906000526020600020905b81548152906001019060200180831161086057829003601f168201915b5050505050908060030180546108929061287b565b80601f01602080910402602001604051908101604052809291908181526020018280546108be9061287b565b801561090b5780601f106108e05761010080835404028352916020019161090b565b820191906000526020600020905b8154815290600101906020018083116108ee57829003601f168201915b5050505050908060040180546109209061287b565b80601f016020809104026020016040519081016040528092919081815260200182805461094c9061287b565b80156109995780601f1061096e57610100808354040283529160200191610999565b820191906000526020600020905b81548152906001019060200180831161097c57829003601f168201915b5050505050908060050160009054906101000a900460ff16905086565b6109d183838360405180602001604052806000815250610f61565b505050565b6000806002600084815260200190815260200160002060009054906101000a900473ffffffffffffffffffffffffffffffffffffffff169050600073ffffffffffffffffffffffffffffffffffffffff168173ffffffffffffffffffffffffffffffffffffffff1603610a7e576040517f08c379a0000000000000000000000000000000000000000000000000000000008152600401610a7590612b66565b60405180910390fd5b80915050919050565b60008073ffffffffffffffffffffffffffffffffffffffff168273ffffffffffffffffffffffffffffffffffffffff1603610af7576040517f08c379a0000000000000000000000000000000000000000000000000000000008152600401610aee90612bf8565b60405180910390fd5b600360008373ffffffffffffffffffffffffffffffffffffffff1673ffffffffffffffffffffffffffffffffffffffff168152602001908152602001600020549050919050565b610b46611ee0565b60005b600880549050811015610e5257828051906020012060088281548110610b7257610b71612c18565b5b9060005260206000209060060201600101604051610b909190612cea565b604051809103902003610e3f5760088181548110610bb157610bb0612c18565b5b90600052602060002090600602016040518060c001604052908160008201548152602001600182018054610be49061287b565b80601f0160208091040260200160405190810160405280929190818152602001828054610c109061287b565b8015610c5d5780601f10610c3257610100808354040283529160200191610c5d565b820191906000526020600020905b815481529060010190602001808311610c4057829003601f168201915b50505050508152602001600282018054610c769061287b565b80601f0160208091040260200160405190810160405280929190818152602001828054610ca29061287b565b8015610cef5780601f10610cc457610100808354040283529160200191610cef565b820191906000526020600020905b815481529060010190602001808311610cd257829003601f168201915b50505050508152602001600382018054610d089061287b565b80601f0160208091040260200160405190810160405280929190818152602001828054610d349061287b565b8015610d815780601f10610d5657610100808354040283529160200191610d81565b820191906000526020600020905b815481529060010190602001808311610d6457829003601f168201915b50505050508152602001600482018054610d9a9061287b565b80601f0160208091040260200160405190810160405280929190818152602001828054610dc69061287b565b8015610e135780601f10610de857610100808354040283529160200191610e13565b820191906000526020600020905b815481529060010190602001808311610df657829003601f168201915b505050505081526020016005820160009054906101000a900460ff161515151581525050915050610e8e565b8080610e4a90612d30565b915050610b49565b506040517f08c379a0000000000000000000000000000000000000000000000000000000008152600401610e8590612dc4565b60405180910390fd5b919050565b600660009054906101000a900473ffffffffffffffffffffffffffffffffffffffff1681565b606060018054610ec89061287b565b80601f0160208091040260200160405190810160405280929190818152602001828054610ef49061287b565b8015610f415780601f10610f1657610100808354040283529160200191610f41565b820191906000526020600020905b815481529060010190602001808311610f2457829003601f168201915b5050505050905090565b610f5d610f56611372565b8383611777565b5050565b610f72610f6c611372565b83611433565b610fb1576040517f08c379a0000000000000000000000000000000000000000000000000000000008152600401610fa890612ad4565b60405180910390fd5b610fbd848484846118e3565b50505050565b6060610fce82611306565b61100d576040517f08c379a000000000000000000000000000000000000000000000000000000000815260040161100490612e56565b60405180910390fd5b600061101761193f565b905060008151116110375760405180602001604052806000815250611062565b8061104184611956565b604051602001611052929190612eb2565b6040516020818303038152906040525b915050919050565b600660009054906101000a900473ffffffffffffffffffffffffffffffffffffffff1673ffffffffffffffffffffffffffffffffffffffff163373ffffffffffffffffffffffffffffffffffffffff16146110fa576040517f08c379a00000000000000000000000000000000000000000000000000000000081526004016110f190612f48565b60405180910390fd5b60006111066007611ab6565b905060006040518060c00160405280838152602001888152602001878152602001868152602001858152602001841515815250905060088190806001815401808255809150506001900390600052602060002090600602016000909190919091506000820151816000015560208201518160010190816111869190613114565b50604082015181600201908161119c9190613114565b5060608201518160030190816111b29190613114565b5060808201518160040190816111c89190613114565b5060a08201518160050160006101000a81548160ff02191690831515021790555050506111f53383611ac4565b6111ff6007611ae2565b50505050505050565b6000600560008473ffffffffffffffffffffffffffffffffffffffff1673ffffffffffffffffffffffffffffffffffffffff16815260200190815260200160002060008373ffffffffffffffffffffffffffffffffffffffff1673ffffffffffffffffffffffffffffffffffffffff16815260200190815260200160002060009054906101000a900460ff16905092915050565b60007f01ffc9a7000000000000000000000000000000000000000000000000000000007bffffffffffffffffffffffffffffffffffffffffffffffffffffffff1916827bffffffffffffffffffffffffffffffffffffffffffffffffffffffff1916149050919050565b60008073ffffffffffffffffffffffffffffffffffffffff166002600084815260200190815260200160002060009054906101000a900473ffffffffffffffffffffffffffffffffffffffff1673ffffffffffffffffffffffffffffffffffffffff1614159050919050565b600033905090565b816004600083815260200190815260200160002060006101000a81548173ffffffffffffffffffffffffffffffffffffffff021916908373ffffffffffffffffffffffffffffffffffffffff160217905550808273ffffffffffffffffffffffffffffffffffffffff166113ed836109d6565b73ffffffffffffffffffffffffffffffffffffffff167f8c5be1e5ebec7d5bd14f71427d1e84f3dd0314c0f7b2291e5b200ac8c7c3b92560405160405180910390a45050565b600061143e82611306565b61147d576040517f08c379a000000000000000000000000000000000000000000000000000000000815260040161147490613258565b60405180910390fd5b6000611488836109d6565b90508073ffffffffffffffffffffffffffffffffffffffff168473ffffffffffffffffffffffffffffffffffffffff1614806114f757508373ffffffffffffffffffffffffffffffffffffffff166114df84610534565b73ffffffffffffffffffffffffffffffffffffffff16145b8061150857506115078185611208565b5b91505092915050565b8273ffffffffffffffffffffffffffffffffffffffff16611531826109d6565b73ffffffffffffffffffffffffffffffffffffffff1614611587576040517f08c379a000000000000000000000000000000000000000000000000000000000815260040161157e906132ea565b60405180910390fd5b600073ffffffffffffffffffffffffffffffffffffffff168273ffffffffffffffffffffffffffffffffffffffff16036115f6576040517f08c379a00000000000000000000000000000000000000000000000000000000081526004016115ed9061337c565b60405180910390fd5b611601838383611af8565b61160c60008261137a565b6001600360008573ffffffffffffffffffffffffffffffffffffffff1673ffffffffffffffffffffffffffffffffffffffff168152602001908152602001600020600082825461165c919061339c565b925050819055506001600360008473ffffffffffffffffffffffffffffffffffffffff1673ffffffffffffffffffffffffffffffffffffffff16815260200190815260200160002060008282546116b391906133d0565b92505081905550816002600083815260200190815260200160002060006101000a81548173ffffffffffffffffffffffffffffffffffffffff021916908373ffffffffffffffffffffffffffffffffffffffff160217905550808273ffffffffffffffffffffffffffffffffffffffff168473ffffffffffffffffffffffffffffffffffffffff167fddf252ad1be2c89b69c2b068fc378daa952ba7f163c4a11628f55a4df523b3ef60405160405180910390a4611772838383611afd565b505050565b8173ffffffffffffffffffffffffffffffffffffffff168373ffffffffffffffffffffffffffffffffffffffff16036117e5576040517f08c379a00000000000000000000000000000000000000000000000000000000081526004016117dc90613450565b60405180910390fd5b80600560008573ffffffffffffffffffffffffffffffffffffffff1673ffffffffffffffffffffffffffffffffffffffff16815260200190815260200160002060008473ffffffffffffffffffffffffffffffffffffffff1673ffffffffffffffffffffffffffffffffffffffff16815260200190815260200160002060006101000a81548160ff0219169083151502179055508173ffffffffffffffffffffffffffffffffffffffff168373ffffffffffffffffffffffffffffffffffffffff167f17307eab39ab6107e8899845ad3d59bd9653f200f220920489ca2b5937696c31836040516118d69190611fcc565b60405180910390a3505050565b6118ee848484611511565b6118fa84848484611b02565b611939576040517f08c379a0000000000000000000000000000000000000000000000000000000008152600401611930906134e2565b60405180910390fd5b50505050565b606060405180602001604052806000815250905090565b60606000820361199d576040518060400160405280600181526020017f30000000000000000000000000000000000000000000000000000000000000008152509050611ab1565b600082905060005b600082146119cf5780806119b890612d30565b915050600a826119c89190613531565b91506119a5565b60008167ffffffffffffffff8111156119eb576119ea6122f5565b5b6040519080825280601f01601f191660200182016040528015611a1d5781602001600182028036833780820191505090505b5090505b60008514611aaa57600182611a36919061339c565b9150600a85611a459190613562565b6030611a5191906133d0565b60f81b818381518110611a6757611a66612c18565b5b60200101907effffffffffffffffffffffffffffffffffffffffffffffffffffffffffffff1916908160001a905350600a85611aa39190613531565b9450611a21565b8093505050505b919050565b600081600001549050919050565b611ade828260405180602001604052806000815250611c89565b5050565b6001816000016000828254019250508190555050565b505050565b505050565b6000611b238473ffffffffffffffffffffffffffffffffffffffff16611ce4565b15611c7c578373ffffffffffffffffffffffffffffffffffffffff1663150b7a02611b4c611372565b8786866040518563ffffffff1660e01b8152600401611b6e94939291906135e8565b6020604051808303816000875af1925050508015611baa57506040513d601f19601f82011682018060405250810190611ba79190613649565b60015b611c2c573d8060008114611bda576040519150601f19603f3d011682016040523d82523d6000602084013e611bdf565b606091505b506000815103611c24576040517f08c379a0000000000000000000000000000000000000000000000000000000008152600401611c1b906134e2565b60405180910390fd5b805181602001fd5b63150b7a0260e01b7bffffffffffffffffffffffffffffffffffffffffffffffffffffffff1916817bffffffffffffffffffffffffffffffffffffffffffffffffffffffff191614915050611c81565b600190505b949350505050565b611c938383611d07565b611ca06000848484611b02565b611cdf576040517f08c379a0000000000000000000000000000000000000000000000000000000008152600401611cd6906134e2565b60405180910390fd5b505050565b6000808273ffffffffffffffffffffffffffffffffffffffff163b119050919050565b600073ffffffffffffffffffffffffffffffffffffffff168273ffffffffffffffffffffffffffffffffffffffff1603611d76576040517f08c379a0000000000000000000000000000000000000000000000000000000008152600401611d6d906136c2565b60405180910390fd5b611d7f81611306565b15611dbf576040517f08c379a0000000000000000000000000000000000000000000000000000000008152600401611db69061372e565b60405180910390fd5b611dcb60008383611af8565b6001600360008473ffffffffffffffffffffffffffffffffffffffff1673ffffffffffffffffffffffffffffffffffffffff1681526020019081526020016000206000828254611e1b91906133d0565b92505081905550816002600083815260200190815260200160002060006101000a81548173ffffffffffffffffffffffffffffffffffffffff021916908373ffffffffffffffffffffffffffffffffffffffff160217905550808273ffffffffffffffffffffffffffffffffffffffff16600073ffffffffffffffffffffffffffffffffffffffff167fddf252ad1be2c89b69c2b068fc378daa952ba7f163c4a11628f55a4df523b3ef60405160405180910390a4611edc60008383611afd565b5050565b6040518060c0016040528060008152602001606081526020016060815260200160608152602001606081526020016000151581525090565b6000604051905090565b600080fd5b600080fd5b60007fffffffff0000000000000000000000000000000000000000000000000000000082169050919050565b611f6181611f2c565b8114611f6c57600080fd5b50565b600081359050611f7e81611f58565b92915050565b600060208284031215611f9a57611f99611f22565b5b6000611fa884828501611f6f565b91505092915050565b60008115159050919050565b611fc681611fb1565b82525050565b6000602082019050611fe16000830184611fbd565b92915050565b600081519050919050565b600082825260208201905092915050565b60005b83811015612021578082015181840152602081019050612006565b60008484015250505050565b6000601f19601f8301169050919050565b600061204982611fe7565b6120538185611ff2565b9350612063818560208601612003565b61206c8161202d565b840191505092915050565b60006020820190508181036000830152612091818461203e565b905092915050565b6000819050919050565b6120ac81612099565b81146120b757600080fd5b50565b6000813590506120c9816120a3565b92915050565b6000602082840312156120e5576120e4611f22565b5b60006120f3848285016120ba565b91505092915050565b600073ffffffffffffffffffffffffffffffffffffffff82169050919050565b6000612127826120fc565b9050919050565b6121378161211c565b82525050565b6000602082019050612152600083018461212e565b92915050565b6121618161211c565b811461216c57600080fd5b50565b60008135905061217e81612158565b92915050565b6000806040838503121561219b5761219a611f22565b5b60006121a98582860161216f565b92505060206121ba858286016120ba565b9150509250929050565b6121cd81612099565b82525050565b60006020820190506121e860008301846121c4565b92915050565b60008060006060848603121561220757612206611f22565b5b60006122158682870161216f565b93505060206122268682870161216f565b9250506040612237868287016120ba565b9150509250925092565b600060c08201905061225660008301896121c4565b8181036020830152612268818861203e565b9050818103604083015261227c818761203e565b90508181036060830152612290818661203e565b905081810360808301526122a4818561203e565b90506122b360a0830184611fbd565b979650505050505050565b6000602082840312156122d4576122d3611f22565b5b60006122e28482850161216f565b91505092915050565b600080fd5b600080fd5b7f4e487b7100000000000000000000000000000000000000000000000000000000600052604160045260246000fd5b61232d8261202d565b810181811067ffffffffffffffff8211171561234c5761234b6122f5565b5b80604052505050565b600061235f611f18565b905061236b8282612324565b919050565b600067ffffffffffffffff82111561238b5761238a6122f5565b5b6123948261202d565b9050602081019050919050565b82818337600083830152505050565b60006123c36123be84612370565b612355565b9050828152602081018484840111156123df576123de6122f0565b5b6123ea8482856123a1565b509392505050565b600082601f830112612407576124066122eb565b5b81356124178482602086016123b0565b91505092915050565b60006020828403121561243657612435611f22565b5b600082013567ffffffffffffffff81111561245457612453611f27565b5b612460848285016123f2565b91505092915050565b61247281612099565b82525050565b600082825260208201905092915050565b600061249482611fe7565b61249e8185612478565b93506124ae818560208601612003565b6124b78161202d565b840191505092915050565b6124cb81611fb1565b82525050565b600060c0830160008301516124e96000860182612469565b50602083015184820360208601526125018282612489565b9150506040830151848203604086015261251b8282612489565b915050606083015184820360608601526125358282612489565b9150506080830151848203608086015261254f8282612489565b91505060a083015161256460a08601826124c2565b508091505092915050565b6000602082019050818103600083015261258981846124d1565b905092915050565b61259a81611fb1565b81146125a557600080fd5b50565b6000813590506125b781612591565b92915050565b600080604083850312156125d4576125d3611f22565b5b60006125e28582860161216f565b92505060206125f3858286016125a8565b9150509250929050565b600067ffffffffffffffff821115612618576126176122f5565b5b6126218261202d565b9050602081019050919050565b600061264161263c846125fd565b612355565b90508281526020810184848401111561265d5761265c6122f0565b5b6126688482856123a1565b509392505050565b600082601f830112612685576126846122eb565b5b813561269584826020860161262e565b91505092915050565b600080600080608085870312156126b8576126b7611f22565b5b60006126c68782880161216f565b94505060206126d78782880161216f565b93505060406126e8878288016120ba565b925050606085013567ffffffffffffffff81111561270957612708611f27565b5b61271587828801612670565b91505092959194509250565b600080600080600060a0868803121561273d5761273c611f22565b5b600086013567ffffffffffffffff81111561275b5761275a611f27565b5b612767888289016123f2565b955050602086013567ffffffffffffffff81111561278857612787611f27565b5b612794888289016123f2565b945050604086013567ffffffffffffffff8111156127b5576127b4611f27565b5b6127c1888289016123f2565b935050606086013567ffffffffffffffff8111156127e2576127e1611f27565b5b6127ee888289016123f2565b92505060806127ff888289016125a8565b9150509295509295909350565b6000806040838503121561282357612822611f22565b5b60006128318582860161216f565b92505060206128428582860161216f565b9150509250929050565b7f4e487b7100000000000000000000000000000000000000000000000000000000600052602260045260246000fd5b6000600282049050600182168061289357607f821691505b6020821081036128a6576128a561284c565b5b50919050565b7f4552433732313a20617070726f76656420717565727920666f72206e6f6e657860008201527f697374656e7420746f6b656e0000000000000000000000000000000000000000602082015250565b6000612908602c83611ff2565b9150612913826128ac565b604082019050919050565b60006020820190508181036000830152612937816128fb565b9050919050565b7f4552433732313a20617070726f76616c20746f2063757272656e74206f776e6560008201527f7200000000000000000000000000000000000000000000000000000000000000602082015250565b600061299a602183611ff2565b91506129a58261293e565b604082019050919050565b600060208201905081810360008301526129c98161298d565b9050919050565b7f4552433732313a20617070726f76652063616c6c6572206973206e6f74206f7760008201527f6e6572206e6f7220617070726f76656420666f7220616c6c0000000000000000602082015250565b6000612a2c603883611ff2565b9150612a37826129d0565b604082019050919050565b60006020820190508181036000830152612a5b81612a1f565b9050919050565b7f4552433732313a207472616e736665722063616c6c6572206973206e6f74206f60008201527f776e6572206e6f7220617070726f766564000000000000000000000000000000602082015250565b6000612abe603183611ff2565b9150612ac982612a62565b604082019050919050565b60006020820190508181036000830152612aed81612ab1565b9050919050565b7f4552433732313a206f776e657220717565727920666f72206e6f6e657869737460008201527f656e7420746f6b656e0000000000000000000000000000000000000000000000602082015250565b6000612b50602983611ff2565b9150612b5b82612af4565b604082019050919050565b60006020820190508181036000830152612b7f81612b43565b9050919050565b7f4552433732313a2062616c616e636520717565727920666f7220746865207a6560008201527f726f206164647265737300000000000000000000000000000000000000000000602082015250565b6000612be2602a83611ff2565b9150612bed82612b86565b604082019050919050565b60006020820190508181036000830152612c1181612bd5565b9050919050565b7f4e487b7100000000000000000000000000000000000000000000000000000000600052603260045260246000fd5b600081905092915050565b60008190508160005260206000209050919050565b60008154612c748161287b565b612c7e8186612c47565b94506001821660008114612c995760018114612cae57612ce1565b60ff1983168652811515820286019350612ce1565b612cb785612c52565b60005b83811015612cd957815481890152600182019150602081019050612cba565b838801955050505b50505092915050565b6000612cf68284612c67565b915081905092915050565b7f4e487b7100000000000000000000000000000000000000000000000000000000600052601160045260246000fd5b6000612d3b82612099565b91507fffffffffffffffffffffffffffffffffffffffffffffffffffffffffffffffff8203612d6d57612d6c612d01565b5b600182019050919050565b7f446f67206e6f7420666f756e6400000000000000000000000000000000000000600082015250565b6000612dae600d83611ff2565b9150612db982612d78565b602082019050919050565b60006020820190508181036000830152612ddd81612da1565b9050919050565b7f4552433732314d657461646174613a2055524920717565727920666f72206e6f60008201527f6e6578697374656e7420746f6b656e0000000000000000000000000000000000602082015250565b6000612e40602f83611ff2565b9150612e4b82612de4565b604082019050919050565b60006020820190508181036000830152612e6f81612e33565b9050919050565b600081905092915050565b6000612e8c82611fe7565b612e968185612e76565b9350612ea6818560208601612003565b80840191505092915050565b6000612ebe8285612e81565b9150612eca8284612e81565b91508190509392505050565b7f4f6e6c7920746865206f776e65722063616e2063616c6c20746869732066756e60008201527f6374696f6e000000000000000000000000000000000000000000000000000000602082015250565b6000612f32602583611ff2565b9150612f3d82612ed6565b604082019050919050565b60006020820190508181036000830152612f6181612f25565b9050919050565b60008190508160005260206000209050919050565b60006020601f8301049050919050565b600082821b905092915050565b600060088302612fca7fffffffffffffffffffffffffffffffffffffffffffffffffffffffffffffffff82612f8d565b612fd48683612f8d565b95508019841693508086168417925050509392505050565b6000819050919050565b600061301161300c61300784612099565b612fec565b612099565b9050919050565b6000819050919050565b61302b83612ff6565b61303f61303782613018565b848454612f9a565b825550505050565b600090565b613054613047565b61305f818484613022565b505050565b5b818110156130835761307860008261304c565b600181019050613065565b5050565b601f8211156130c85761309981612f68565b6130a284612f7d565b810160208510156130b1578190505b6130c56130bd85612f7d565b830182613064565b50505b505050565b600082821c905092915050565b60006130eb600019846008026130cd565b1980831691505092915050565b600061310483836130da565b9150826002028217905092915050565b61311d82611fe7565b67ffffffffffffffff811115613136576131356122f5565b5b613140825461287b565b61314b828285613087565b600060209050601f83116001811461317e576000841561316c578287015190505b61317685826130f8565b8655506131de565b601f19841661318c86612f68565b60005b828110156131b45784890151825560018201915060208501945060208101905061318f565b868310156131d157848901516131cd601f8916826130da565b8355505b6001600288020188555050505b505050505050565b7f4552433732313a206f70657261746f7220717565727920666f72206e6f6e657860008201527f697374656e7420746f6b656e0000000000000000000000000000000000000000602082015250565b6000613242602c83611ff2565b915061324d826131e6565b604082019050919050565b6000602082019050818103600083015261327181613235565b9050919050565b7f4552433732313a207472616e736665722066726f6d20696e636f72726563742060008201527f6f776e6572000000000000000000000000000000000000000000000000000000602082015250565b60006132d4602583611ff2565b91506132df82613278565b604082019050919050565b60006020820190508181036000830152613303816132c7565b9050919050565b7f4552433732313a207472616e7366657220746f20746865207a65726f2061646460008201527f7265737300000000000000000000000000000000000000000000000000000000602082015250565b6000613366602483611ff2565b91506133718261330a565b604082019050919050565b6000602082019050818103600083015261339581613359565b9050919050565b60006133a782612099565b91506133b283612099565b92508282039050818111156133ca576133c9612d01565b5b92915050565b60006133db82612099565b91506133e683612099565b92508282019050808211156133fe576133fd612d01565b5b92915050565b7f4552433732313a20617070726f766520746f2063616c6c657200000000000000600082015250565b600061343a601983611ff2565b915061344582613404565b602082019050919050565b600060208201905081810360008301526134698161342d565b9050919050565b7f4552433732313a207472616e7366657220746f206e6f6e20455243373231526560008201527f63656976657220696d706c656d656e7465720000000000000000000000000000602082015250565b60006134cc603283611ff2565b91506134d782613470565b604082019050919050565b600060208201905081810360008301526134fb816134bf565b9050919050565b7f4e487b7100000000000000000000000000000000000000000000000000000000600052601260045260246000fd5b600061353c82612099565b915061354783612099565b92508261355757613556613502565b5b828204905092915050565b600061356d82612099565b915061357883612099565b92508261358857613587613502565b5b828206905092915050565b600081519050919050565b600082825260208201905092915050565b60006135ba82613593565b6135c4818561359e565b93506135d4818560208601612003565b6135dd8161202d565b840191505092915050565b60006080820190506135fd600083018761212e565b61360a602083018661212e565b61361760408301856121c4565b818103606083015261362981846135af565b905095945050505050565b60008151905061364381611f58565b92915050565b60006020828403121561365f5761365e611f22565b5b600061366d84828501613634565b91505092915050565b7f4552433732313a206d696e7420746f20746865207a65726f2061646472657373600082015250565b60006136ac602083611ff2565b91506136b782613676565b602082019050919050565b600060208201905081810360008301526136db8161369f565b9050919050565b7f4552433732313a20746f6b656e20616c7265616479206d696e74656400000000600082015250565b6000613718601c83611ff2565b9150613723826136e2565b602082019050919050565b600060208201905081810360008301526137478161370b565b905091905056fea2646970667358221220912f438f951240e7e4986612de40c3c978a7e227b17ed83decef9224b17726a164736f6c63430008130033",
  "linkReferences": {},
  "deployedLinkReferences": {}
}